{
  "_format": "hh-sol-artifact-1",
  "contractName": "TorNFT",
  "sourceName": "contracts/OsunRiverNFT.sol",
  "abi": [
    {
      "inputs": [],
      "stateMutability": "nonpayable",
      "type": "constructor"
    },
    {
      "anonymous": false,
      "inputs": [
        {
          "indexed": true,
          "internalType": "address",
          "name": "owner",
          "type": "address"
        },
        {
          "indexed": true,
          "internalType": "address",
          "name": "approved",
          "type": "address"
        },
        {
          "indexed": true,
          "internalType": "uint256",
          "name": "tokenId",
          "type": "uint256"
        }
      ],
      "name": "Approval",
      "type": "event"
    },
    {
      "anonymous": false,
      "inputs": [
        {
          "indexed": true,
          "internalType": "address",
          "name": "owner",
          "type": "address"
        },
        {
          "indexed": true,
          "internalType": "address",
          "name": "operator",
          "type": "address"
        },
        {
          "indexed": false,
          "internalType": "bool",
          "name": "approved",
          "type": "bool"
        }
      ],
      "name": "ApprovalForAll",
      "type": "event"
    },
    {
      "anonymous": false,
      "inputs": [
        {
          "indexed": false,
          "internalType": "uint256",
          "name": "_fromTokenId",
          "type": "uint256"
        },
        {
          "indexed": false,
          "internalType": "uint256",
          "name": "_toTokenId",
          "type": "uint256"
        }
      ],
      "name": "BatchMetadataUpdate",
      "type": "event"
    },
    {
      "anonymous": false,
      "inputs": [
        {
          "indexed": false,
          "internalType": "uint256",
          "name": "_tokenId",
          "type": "uint256"
        }
      ],
      "name": "MetadataUpdate",
      "type": "event"
    },
    {
      "anonymous": false,
      "inputs": [
        {
          "indexed": true,
          "internalType": "address",
          "name": "previousOwner",
          "type": "address"
        },
        {
          "indexed": true,
          "internalType": "address",
          "name": "newOwner",
          "type": "address"
        }
      ],
      "name": "OwnershipTransferred",
      "type": "event"
    },
    {
      "anonymous": false,
      "inputs": [
        {
          "indexed": true,
          "internalType": "address",
          "name": "from",
          "type": "address"
        },
        {
          "indexed": true,
          "internalType": "address",
          "name": "to",
          "type": "address"
        },
        {
          "indexed": true,
          "internalType": "uint256",
          "name": "tokenId",
          "type": "uint256"
        }
      ],
      "name": "Transfer",
      "type": "event"
    },
    {
      "inputs": [
        {
          "internalType": "address",
          "name": "to",
          "type": "address"
        },
        {
          "internalType": "uint256",
          "name": "tokenId",
          "type": "uint256"
        }
      ],
      "name": "approve",
      "outputs": [],
      "stateMutability": "nonpayable",
      "type": "function"
    },
    {
      "inputs": [
        {
          "internalType": "address",
          "name": "owner",
          "type": "address"
        }
      ],
      "name": "balanceOf",
      "outputs": [
        {
          "internalType": "uint256",
          "name": "",
          "type": "uint256"
        }
      ],
      "stateMutability": "view",
      "type": "function"
    },
    {
      "inputs": [
        {
          "internalType": "address",
          "name": "receiver",
          "type": "address"
        },
        {
          "internalType": "string",
          "name": "tokenURI",
          "type": "string"
        }
      ],
      "name": "createNFT",
      "outputs": [
        {
          "internalType": "uint256",
          "name": "",
          "type": "uint256"
        }
      ],
      "stateMutability": "nonpayable",
      "type": "function"
    },
    {
      "inputs": [
        {
          "internalType": "uint256",
          "name": "tokenId",
          "type": "uint256"
        }
      ],
      "name": "getApproved",
      "outputs": [
        {
          "internalType": "address",
          "name": "",
          "type": "address"
        }
      ],
      "stateMutability": "view",
      "type": "function"
    },
    {
      "inputs": [
        {
          "internalType": "address",
          "name": "owner",
          "type": "address"
        },
        {
          "internalType": "address",
          "name": "operator",
          "type": "address"
        }
      ],
      "name": "isApprovedForAll",
      "outputs": [
        {
          "internalType": "bool",
          "name": "",
          "type": "bool"
        }
      ],
      "stateMutability": "view",
      "type": "function"
    },
    {
      "inputs": [],
      "name": "name",
      "outputs": [
        {
          "internalType": "string",
          "name": "",
          "type": "string"
        }
      ],
      "stateMutability": "view",
      "type": "function"
    },
    {
      "inputs": [],
      "name": "owner",
      "outputs": [
        {
          "internalType": "address",
          "name": "",
          "type": "address"
        }
      ],
      "stateMutability": "view",
      "type": "function"
    },
    {
      "inputs": [
        {
          "internalType": "uint256",
          "name": "tokenId",
          "type": "uint256"
        }
      ],
      "name": "ownerOf",
      "outputs": [
        {
          "internalType": "address",
          "name": "",
          "type": "address"
        }
      ],
      "stateMutability": "view",
      "type": "function"
    },
    {
      "inputs": [],
      "name": "renounceOwnership",
      "outputs": [],
      "stateMutability": "nonpayable",
      "type": "function"
    },
    {
      "inputs": [
        {
          "internalType": "address",
          "name": "from",
          "type": "address"
        },
        {
          "internalType": "address",
          "name": "to",
          "type": "address"
        },
        {
          "internalType": "uint256",
          "name": "tokenId",
          "type": "uint256"
        }
      ],
      "name": "safeTransferFrom",
      "outputs": [],
      "stateMutability": "nonpayable",
      "type": "function"
    },
    {
      "inputs": [
        {
          "internalType": "address",
          "name": "from",
          "type": "address"
        },
        {
          "internalType": "address",
          "name": "to",
          "type": "address"
        },
        {
          "internalType": "uint256",
          "name": "tokenId",
          "type": "uint256"
        },
        {
          "internalType": "bytes",
          "name": "data",
          "type": "bytes"
        }
      ],
      "name": "safeTransferFrom",
      "outputs": [],
      "stateMutability": "nonpayable",
      "type": "function"
    },
    {
      "inputs": [
        {
          "internalType": "address",
          "name": "operator",
          "type": "address"
        },
        {
          "internalType": "bool",
          "name": "approved",
          "type": "bool"
        }
      ],
      "name": "setApprovalForAll",
      "outputs": [],
      "stateMutability": "nonpayable",
      "type": "function"
    },
    {
      "inputs": [
        {
          "internalType": "bytes4",
          "name": "interfaceId",
          "type": "bytes4"
        }
      ],
      "name": "supportsInterface",
      "outputs": [
        {
          "internalType": "bool",
          "name": "",
          "type": "bool"
        }
      ],
      "stateMutability": "view",
      "type": "function"
    },
    {
      "inputs": [],
      "name": "symbol",
      "outputs": [
        {
          "internalType": "string",
          "name": "",
          "type": "string"
        }
      ],
      "stateMutability": "view",
      "type": "function"
    },
    {
      "inputs": [
        {
          "internalType": "uint256",
          "name": "tokenId",
          "type": "uint256"
        }
      ],
      "name": "tokenURI",
      "outputs": [
        {
          "internalType": "string",
          "name": "",
          "type": "string"
        }
      ],
      "stateMutability": "view",
      "type": "function"
    },
    {
      "inputs": [
        {
          "internalType": "address",
          "name": "from",
          "type": "address"
        },
        {
          "internalType": "address",
          "name": "to",
          "type": "address"
        },
        {
          "internalType": "uint256",
          "name": "tokenId",
          "type": "uint256"
        }
      ],
      "name": "transferFrom",
      "outputs": [],
      "stateMutability": "nonpayable",
      "type": "function"
    },
    {
      "inputs": [
        {
          "internalType": "address",
          "name": "newOwner",
          "type": "address"
        }
      ],
      "name": "transferOwnership",
      "outputs": [],
      "stateMutability": "nonpayable",
      "type": "function"
    }
  ],
  "bytecode": "0x60806040523480156200001157600080fd5b506040518060400160405280600c81526020017f5468654f73756e526976657200000000000000000000000000000000000000008152506040518060400160405280600381526020017f544f52000000000000000000000000000000000000000000000000000000000081525081600090816200008f919062000412565b508060019081620000a1919062000412565b505050620000c4620000b8620000ca60201b60201c565b620000d260201b60201c565b620004f9565b600033905090565b6000600760009054906101000a900473ffffffffffffffffffffffffffffffffffffffff16905081600760006101000a81548173ffffffffffffffffffffffffffffffffffffffff021916908373ffffffffffffffffffffffffffffffffffffffff1602179055508173ffffffffffffffffffffffffffffffffffffffff168173ffffffffffffffffffffffffffffffffffffffff167f8be0079c531659141344cd1fd0a4f28419497f9722a3daafe3b4186f6b6457e060405160405180910390a35050565b600081519050919050565b7f4e487b7100000000000000000000000000000000000000000000000000000000600052604160045260246000fd5b7f4e487b7100000000000000000000000000000000000000000000000000000000600052602260045260246000fd5b600060028204905060018216806200021a57607f821691505b60208210810362000230576200022f620001d2565b5b50919050565b60008190508160005260206000209050919050565b60006020601f8301049050919050565b600082821b905092915050565b6000600883026200029a7fffffffffffffffffffffffffffffffffffffffffffffffffffffffffffffffff826200025b565b620002a686836200025b565b95508019841693508086168417925050509392505050565b6000819050919050565b6000819050919050565b6000620002f3620002ed620002e784620002be565b620002c8565b620002be565b9050919050565b6000819050919050565b6200030f83620002d2565b620003276200031e82620002fa565b84845462000268565b825550505050565b600090565b6200033e6200032f565b6200034b81848462000304565b505050565b5b8181101562000373576200036760008262000334565b60018101905062000351565b5050565b601f821115620003c2576200038c8162000236565b62000397846200024b565b81016020851015620003a7578190505b620003bf620003b6856200024b565b83018262000350565b50505b505050565b600082821c905092915050565b6000620003e760001984600802620003c7565b1980831691505092915050565b6000620004028383620003d4565b9150826002028217905092915050565b6200041d8262000198565b67ffffffffffffffff811115620004395762000438620001a3565b5b62000445825462000201565b6200045282828562000377565b600060209050601f8311600181146200048a576000841562000475578287015190505b620004818582620003f4565b865550620004f1565b601f1984166200049a8662000236565b60005b82811015620004c4578489015182556001820191506020850194506020810190506200049d565b86831015620004e45784890151620004e0601f891682620003d4565b8355505b6001600288020188555050505b505050505050565b612e5080620005096000396000f3fe608060405234801561001057600080fd5b506004361061010b5760003560e01c8063715018a6116100a2578063a561403311610071578063a5614033146102a4578063b88d4fde146102d4578063c87b56dd146102f0578063e985e9c514610320578063f2fde38b146103505761010b565b8063715018a6146102425780638da5cb5b1461024c57806395d89b411461026a578063a22cb465146102885761010b565b806323b872dd116100de57806323b872dd146101aa57806342842e0e146101c65780636352211e146101e257806370a08231146102125761010b565b806301ffc9a71461011057806306fdde0314610140578063081812fc1461015e578063095ea7b31461018e575b600080fd5b61012a60048036038101906101259190611c41565b61036c565b6040516101379190611c89565b60405180910390f35b6101486103cd565b6040516101559190611d34565b60405180910390f35b61017860048036038101906101739190611d8c565b61045f565b6040516101859190611dfa565b60405180910390f35b6101a860048036038101906101a39190611e41565b6104a5565b005b6101c460048036038101906101bf9190611e81565b6105bc565b005b6101e060048036038101906101db9190611e81565b61061c565b005b6101fc60048036038101906101f79190611d8c565b61063c565b6040516102099190611dfa565b60405180910390f35b61022c60048036038101906102279190611ed4565b6106c2565b6040516102399190611f10565b60405180910390f35b61024a610779565b005b61025461078d565b6040516102619190611dfa565b60405180910390f35b6102726107b7565b60405161027f9190611d34565b60405180910390f35b6102a2600480360381019061029d9190611f57565b610849565b005b6102be60048036038101906102b991906120cc565b61085f565b6040516102cb9190611f10565b60405180910390f35b6102ee60048036038101906102e991906121c9565b61089f565b005b61030a60048036038101906103059190611d8c565b610901565b6040516103179190611d34565b60405180910390f35b61033a6004803603810190610335919061224c565b610a13565b6040516103479190611c89565b60405180910390f35b61036a60048036038101906103659190611ed4565b610aa7565b005b6000634906490660e01b7bffffffffffffffffffffffffffffffffffffffffffffffffffffffff1916827bffffffffffffffffffffffffffffffffffffffffffffffffffffffff191614806103c657506103c582610b2a565b5b9050919050565b6060600080546103dc906122bb565b80601f0160208091040260200160405190810160405280929190818152602001828054610408906122bb565b80156104555780601f1061042a57610100808354040283529160200191610455565b820191906000526020600020905b81548152906001019060200180831161043857829003601f168201915b5050505050905090565b600061046a82610c0c565b6004600083815260200190815260200160002060009054906101000a900473ffffffffffffffffffffffffffffffffffffffff169050919050565b60006104b08261063c565b90508073ffffffffffffffffffffffffffffffffffffffff168373ffffffffffffffffffffffffffffffffffffffff1603610520576040517f08c379a00000000000000000000000000000000000000000000000000000000081526004016105179061235e565b60405180910390fd5b8073ffffffffffffffffffffffffffffffffffffffff1661053f610c57565b73ffffffffffffffffffffffffffffffffffffffff16148061056e575061056d81610568610c57565b610a13565b5b6105ad576040517f08c379a00000000000000000000000000000000000000000000000000000000081526004016105a4906123f0565b60405180910390fd5b6105b78383610c5f565b505050565b6105cd6105c7610c57565b82610d18565b61060c576040517f08c379a000000000000000000000000000000000000000000000000000000000815260040161060390612482565b60405180910390fd5b610617838383610dad565b505050565b6106378383836040518060200160405280600081525061089f565b505050565b600080610648836110a6565b9050600073ffffffffffffffffffffffffffffffffffffffff168173ffffffffffffffffffffffffffffffffffffffff16036106b9576040517f08c379a00000000000000000000000000000000000000000000000000000000081526004016106b0906124ee565b60405180910390fd5b80915050919050565b60008073ffffffffffffffffffffffffffffffffffffffff168273ffffffffffffffffffffffffffffffffffffffff1603610732576040517f08c379a000000000000000000000000000000000000000000000000000000000815260040161072990612580565b60405180910390fd5b600360008373ffffffffffffffffffffffffffffffffffffffff1673ffffffffffffffffffffffffffffffffffffffff168152602001908152602001600020549050919050565b6107816110e3565b61078b6000611161565b565b6000600760009054906101000a900473ffffffffffffffffffffffffffffffffffffffff16905090565b6060600180546107c6906122bb565b80601f01602080910402602001604051908101604052809291908181526020018280546107f2906122bb565b801561083f5780601f106108145761010080835404028352916020019161083f565b820191906000526020600020905b81548152906001019060200180831161082257829003601f168201915b5050505050905090565b61085b610854610c57565b8383611227565b5050565b60006108696110e3565b6108736008611393565b600061087f60086113a9565b905061088b84826113b7565b61089581846115d4565b8091505092915050565b6108b06108aa610c57565b83610d18565b6108ef576040517f08c379a00000000000000000000000000000000000000000000000000000000081526004016108e690612482565b60405180910390fd5b6108fb84848484611678565b50505050565b606061090c82610c0c565b600060066000848152602001908152602001600020805461092c906122bb565b80601f0160208091040260200160405190810160405280929190818152602001828054610958906122bb565b80156109a55780601f1061097a576101008083540402835291602001916109a5565b820191906000526020600020905b81548152906001019060200180831161098857829003601f168201915b5050505050905060006109b66116d4565b905060008151036109cb578192505050610a0e565b600082511115610a005780826040516020016109e89291906125dc565b60405160208183030381529060405292505050610a0e565b610a09846116eb565b925050505b919050565b6000600560008473ffffffffffffffffffffffffffffffffffffffff1673ffffffffffffffffffffffffffffffffffffffff16815260200190815260200160002060008373ffffffffffffffffffffffffffffffffffffffff1673ffffffffffffffffffffffffffffffffffffffff16815260200190815260200160002060009054906101000a900460ff16905092915050565b610aaf6110e3565b600073ffffffffffffffffffffffffffffffffffffffff168173ffffffffffffffffffffffffffffffffffffffff1603610b1e576040517f08c379a0000000000000000000000000000000000000000000000000000000008152600401610b1590612672565b60405180910390fd5b610b2781611161565b50565b60007f80ac58cd000000000000000000000000000000000000000000000000000000007bffffffffffffffffffffffffffffffffffffffffffffffffffffffff1916827bffffffffffffffffffffffffffffffffffffffffffffffffffffffff19161480610bf557507f5b5e139f000000000000000000000000000000000000000000000000000000007bffffffffffffffffffffffffffffffffffffffffffffffffffffffff1916827bffffffffffffffffffffffffffffffffffffffffffffffffffffffff1916145b80610c055750610c0482611753565b5b9050919050565b610c15816117bd565b610c54576040517f08c379a0000000000000000000000000000000000000000000000000000000008152600401610c4b906124ee565b60405180910390fd5b50565b600033905090565b816004600083815260200190815260200160002060006101000a81548173ffffffffffffffffffffffffffffffffffffffff021916908373ffffffffffffffffffffffffffffffffffffffff160217905550808273ffffffffffffffffffffffffffffffffffffffff16610cd28361063c565b73ffffffffffffffffffffffffffffffffffffffff167f8c5be1e5ebec7d5bd14f71427d1e84f3dd0314c0f7b2291e5b200ac8c7c3b92560405160405180910390a45050565b600080610d248361063c565b90508073ffffffffffffffffffffffffffffffffffffffff168473ffffffffffffffffffffffffffffffffffffffff161480610d665750610d658185610a13565b5b80610da457508373ffffffffffffffffffffffffffffffffffffffff16610d8c8461045f565b73ffffffffffffffffffffffffffffffffffffffff16145b91505092915050565b8273ffffffffffffffffffffffffffffffffffffffff16610dcd8261063c565b73ffffffffffffffffffffffffffffffffffffffff1614610e23576040517f08c379a0000000000000000000000000000000000000000000000000000000008152600401610e1a90612704565b60405180910390fd5b600073ffffffffffffffffffffffffffffffffffffffff168273ffffffffffffffffffffffffffffffffffffffff1603610e92576040517f08c379a0000000000000000000000000000000000000000000000000000000008152600401610e8990612796565b60405180910390fd5b610e9f83838360016117fe565b8273ffffffffffffffffffffffffffffffffffffffff16610ebf8261063c565b73ffffffffffffffffffffffffffffffffffffffff1614610f15576040517f08c379a0000000000000000000000000000000000000000000000000000000008152600401610f0c90612704565b60405180910390fd5b6004600082815260200190815260200160002060006101000a81549073ffffffffffffffffffffffffffffffffffffffff02191690556001600360008573ffffffffffffffffffffffffffffffffffffffff1673ffffffffffffffffffffffffffffffffffffffff168152602001908152602001600020600082825403925050819055506001600360008473ffffffffffffffffffffffffffffffffffffffff1673ffffffffffffffffffffffffffffffffffffffff16815260200190815260200160002060008282540192505081905550816002600083815260200190815260200160002060006101000a81548173ffffffffffffffffffffffffffffffffffffffff021916908373ffffffffffffffffffffffffffffffffffffffff160217905550808273ffffffffffffffffffffffffffffffffffffffff168473ffffffffffffffffffffffffffffffffffffffff167fddf252ad1be2c89b69c2b068fc378daa952ba7f163c4a11628f55a4df523b3ef60405160405180910390a46110a18383836001611804565b505050565b60006002600083815260200190815260200160002060009054906101000a900473ffffffffffffffffffffffffffffffffffffffff169050919050565b6110eb610c57565b73ffffffffffffffffffffffffffffffffffffffff1661110961078d565b73ffffffffffffffffffffffffffffffffffffffff161461115f576040517f08c379a000000000000000000000000000000000000000000000000000000000815260040161115690612802565b60405180910390fd5b565b6000600760009054906101000a900473ffffffffffffffffffffffffffffffffffffffff16905081600760006101000a81548173ffffffffffffffffffffffffffffffffffffffff021916908373ffffffffffffffffffffffffffffffffffffffff1602179055508173ffffffffffffffffffffffffffffffffffffffff168173ffffffffffffffffffffffffffffffffffffffff167f8be0079c531659141344cd1fd0a4f28419497f9722a3daafe3b4186f6b6457e060405160405180910390a35050565b8173ffffffffffffffffffffffffffffffffffffffff168373ffffffffffffffffffffffffffffffffffffffff1603611295576040517f08c379a000000000000000000000000000000000000000000000000000000000815260040161128c9061286e565b60405180910390fd5b80600560008573ffffffffffffffffffffffffffffffffffffffff1673ffffffffffffffffffffffffffffffffffffffff16815260200190815260200160002060008473ffffffffffffffffffffffffffffffffffffffff1673ffffffffffffffffffffffffffffffffffffffff16815260200190815260200160002060006101000a81548160ff0219169083151502179055508173ffffffffffffffffffffffffffffffffffffffff168373ffffffffffffffffffffffffffffffffffffffff167f17307eab39ab6107e8899845ad3d59bd9653f200f220920489ca2b5937696c31836040516113869190611c89565b60405180910390a3505050565b6001816000016000828254019250508190555050565b600081600001549050919050565b600073ffffffffffffffffffffffffffffffffffffffff168273ffffffffffffffffffffffffffffffffffffffff1603611426576040517f08c379a000000000000000000000000000000000000000000000000000000000815260040161141d906128da565b60405180910390fd5b61142f816117bd565b1561146f576040517f08c379a000000000000000000000000000000000000000000000000000000000815260040161146690612946565b60405180910390fd5b61147d6000838360016117fe565b611486816117bd565b156114c6576040517f08c379a00000000000000000000000000000000000000000000000000000000081526004016114bd90612946565b60405180910390fd5b6001600360008473ffffffffffffffffffffffffffffffffffffffff1673ffffffffffffffffffffffffffffffffffffffff16815260200190815260200160002060008282540192505081905550816002600083815260200190815260200160002060006101000a81548173ffffffffffffffffffffffffffffffffffffffff021916908373ffffffffffffffffffffffffffffffffffffffff160217905550808273ffffffffffffffffffffffffffffffffffffffff16600073ffffffffffffffffffffffffffffffffffffffff167fddf252ad1be2c89b69c2b068fc378daa952ba7f163c4a11628f55a4df523b3ef60405160405180910390a46115d0600083836001611804565b5050565b6115dd826117bd565b61161c576040517f08c379a0000000000000000000000000000000000000000000000000000000008152600401611613906129d8565b60405180910390fd5b8060066000848152602001908152602001600020908161163c9190612ba4565b507ff8e1a15aba9398e019f0b49df1a4fde98ee17ae345cb5f6b5e2c27f5033e8ce78260405161166c9190611f10565b60405180910390a15050565b611683848484610dad565b61168f8484848461180a565b6116ce576040517f08c379a00000000000000000000000000000000000000000000000000000000081526004016116c590612ce8565b60405180910390fd5b50505050565b606060405180602001604052806000815250905090565b60606116f682610c0c565b60006117006116d4565b90506000815111611720576040518060200160405280600081525061174b565b8061172a84611991565b60405160200161173b9291906125dc565b6040516020818303038152906040525b915050919050565b60007f01ffc9a7000000000000000000000000000000000000000000000000000000007bffffffffffffffffffffffffffffffffffffffffffffffffffffffff1916827bffffffffffffffffffffffffffffffffffffffffffffffffffffffff1916149050919050565b60008073ffffffffffffffffffffffffffffffffffffffff166117df836110a6565b73ffffffffffffffffffffffffffffffffffffffff1614159050919050565b50505050565b50505050565b600061182b8473ffffffffffffffffffffffffffffffffffffffff16611a5f565b15611984578373ffffffffffffffffffffffffffffffffffffffff1663150b7a02611854610c57565b8786866040518563ffffffff1660e01b81526004016118769493929190612d5d565b6020604051808303816000875af19250505080156118b257506040513d601f19601f820116820180604052508101906118af9190612dbe565b60015b611934573d80600081146118e2576040519150601f19603f3d011682016040523d82523d6000602084013e6118e7565b606091505b50600081510361192c576040517f08c379a000000000000000000000000000000000000000000000000000000000815260040161192390612ce8565b60405180910390fd5b805181602001fd5b63150b7a0260e01b7bffffffffffffffffffffffffffffffffffffffffffffffffffffffff1916817bffffffffffffffffffffffffffffffffffffffffffffffffffffffff191614915050611989565b600190505b949350505050565b6060600060016119a084611a82565b01905060008167ffffffffffffffff8111156119bf576119be611fa1565b5b6040519080825280601f01601f1916602001820160405280156119f15781602001600182028036833780820191505090505b509050600082602001820190505b600115611a54578080600190039150507f3031323334353637383961626364656600000000000000000000000000000000600a86061a8153600a8581611a4857611a47612deb565b5b049450600085036119ff575b819350505050919050565b6000808273ffffffffffffffffffffffffffffffffffffffff163b119050919050565b600080600090507a184f03e93ff9f4daa797ed6e38ed64bf6a1f0100000000000000008310611ae0577a184f03e93ff9f4daa797ed6e38ed64bf6a1f0100000000000000008381611ad657611ad5612deb565b5b0492506040810190505b6d04ee2d6d415b85acef81000000008310611b1d576d04ee2d6d415b85acef81000000008381611b1357611b12612deb565b5b0492506020810190505b662386f26fc100008310611b4c57662386f26fc100008381611b4257611b41612deb565b5b0492506010810190505b6305f5e1008310611b75576305f5e1008381611b6b57611b6a612deb565b5b0492506008810190505b6127108310611b9a576127108381611b9057611b8f612deb565b5b0492506004810190505b60648310611bbd5760648381611bb357611bb2612deb565b5b0492506002810190505b600a8310611bcc576001810190505b80915050919050565b6000604051905090565b600080fd5b600080fd5b60007fffffffff0000000000000000000000000000000000000000000000000000000082169050919050565b611c1e81611be9565b8114611c2957600080fd5b50565b600081359050611c3b81611c15565b92915050565b600060208284031215611c5757611c56611bdf565b5b6000611c6584828501611c2c565b91505092915050565b60008115159050919050565b611c8381611c6e565b82525050565b6000602082019050611c9e6000830184611c7a565b92915050565b600081519050919050565b600082825260208201905092915050565b60005b83811015611cde578082015181840152602081019050611cc3565b60008484015250505050565b6000601f19601f8301169050919050565b6000611d0682611ca4565b611d108185611caf565b9350611d20818560208601611cc0565b611d2981611cea565b840191505092915050565b60006020820190508181036000830152611d4e8184611cfb565b905092915050565b6000819050919050565b611d6981611d56565b8114611d7457600080fd5b50565b600081359050611d8681611d60565b92915050565b600060208284031215611da257611da1611bdf565b5b6000611db084828501611d77565b91505092915050565b600073ffffffffffffffffffffffffffffffffffffffff82169050919050565b6000611de482611db9565b9050919050565b611df481611dd9565b82525050565b6000602082019050611e0f6000830184611deb565b92915050565b611e1e81611dd9565b8114611e2957600080fd5b50565b600081359050611e3b81611e15565b92915050565b60008060408385031215611e5857611e57611bdf565b5b6000611e6685828601611e2c565b9250506020611e7785828601611d77565b9150509250929050565b600080600060608486031215611e9a57611e99611bdf565b5b6000611ea886828701611e2c565b9350506020611eb986828701611e2c565b9250506040611eca86828701611d77565b9150509250925092565b600060208284031215611eea57611ee9611bdf565b5b6000611ef884828501611e2c565b91505092915050565b611f0a81611d56565b82525050565b6000602082019050611f256000830184611f01565b92915050565b611f3481611c6e565b8114611f3f57600080fd5b50565b600081359050611f5181611f2b565b92915050565b60008060408385031215611f6e57611f6d611bdf565b5b6000611f7c85828601611e2c565b9250506020611f8d85828601611f42565b9150509250929050565b600080fd5b600080fd5b7f4e487b7100000000000000000000000000000000000000000000000000000000600052604160045260246000fd5b611fd982611cea565b810181811067ffffffffffffffff82111715611ff857611ff7611fa1565b5b80604052505050565b600061200b611bd5565b90506120178282611fd0565b919050565b600067ffffffffffffffff82111561203757612036611fa1565b5b61204082611cea565b9050602081019050919050565b82818337600083830152505050565b600061206f61206a8461201c565b612001565b90508281526020810184848401111561208b5761208a611f9c565b5b61209684828561204d565b509392505050565b600082601f8301126120b3576120b2611f97565b5b81356120c384826020860161205c565b91505092915050565b600080604083850312156120e3576120e2611bdf565b5b60006120f185828601611e2c565b925050602083013567ffffffffffffffff81111561211257612111611be4565b5b61211e8582860161209e565b9150509250929050565b600067ffffffffffffffff82111561214357612142611fa1565b5b61214c82611cea565b9050602081019050919050565b600061216c61216784612128565b612001565b90508281526020810184848401111561218857612187611f9c565b5b61219384828561204d565b509392505050565b600082601f8301126121b0576121af611f97565b5b81356121c0848260208601612159565b91505092915050565b600080600080608085870312156121e3576121e2611bdf565b5b60006121f187828801611e2c565b945050602061220287828801611e2c565b935050604061221387828801611d77565b925050606085013567ffffffffffffffff81111561223457612233611be4565b5b6122408782880161219b565b91505092959194509250565b6000806040838503121561226357612262611bdf565b5b600061227185828601611e2c565b925050602061228285828601611e2c565b9150509250929050565b7f4e487b7100000000000000000000000000000000000000000000000000000000600052602260045260246000fd5b600060028204905060018216806122d357607f821691505b6020821081036122e6576122e561228c565b5b50919050565b7f4552433732313a20617070726f76616c20746f2063757272656e74206f776e6560008201527f7200000000000000000000000000000000000000000000000000000000000000602082015250565b6000612348602183611caf565b9150612353826122ec565b604082019050919050565b600060208201905081810360008301526123778161233b565b9050919050565b7f4552433732313a20617070726f76652063616c6c6572206973206e6f7420746f60008201527f6b656e206f776e6572206f7220617070726f76656420666f7220616c6c000000602082015250565b60006123da603d83611caf565b91506123e58261237e565b604082019050919050565b60006020820190508181036000830152612409816123cd565b9050919050565b7f4552433732313a2063616c6c6572206973206e6f7420746f6b656e206f776e6560008201527f72206f7220617070726f76656400000000000000000000000000000000000000602082015250565b600061246c602d83611caf565b915061247782612410565b604082019050919050565b6000602082019050818103600083015261249b8161245f565b9050919050565b7f4552433732313a20696e76616c696420746f6b656e2049440000000000000000600082015250565b60006124d8601883611caf565b91506124e3826124a2565b602082019050919050565b60006020820190508181036000830152612507816124cb565b9050919050565b7f4552433732313a2061646472657373207a65726f206973206e6f74206120766160008201527f6c6964206f776e65720000000000000000000000000000000000000000000000602082015250565b600061256a602983611caf565b91506125758261250e565b604082019050919050565b600060208201905081810360008301526125998161255d565b9050919050565b600081905092915050565b60006125b682611ca4565b6125c081856125a0565b93506125d0818560208601611cc0565b80840191505092915050565b60006125e882856125ab565b91506125f482846125ab565b91508190509392505050565b7f4f776e61626c653a206e6577206f776e657220697320746865207a65726f206160008201527f6464726573730000000000000000000000000000000000000000000000000000602082015250565b600061265c602683611caf565b915061266782612600565b604082019050919050565b6000602082019050818103600083015261268b8161264f565b9050919050565b7f4552433732313a207472616e736665722066726f6d20696e636f72726563742060008201527f6f776e6572000000000000000000000000000000000000000000000000000000602082015250565b60006126ee602583611caf565b91506126f982612692565b604082019050919050565b6000602082019050818103600083015261271d816126e1565b9050919050565b7f4552433732313a207472616e7366657220746f20746865207a65726f2061646460008201527f7265737300000000000000000000000000000000000000000000000000000000602082015250565b6000612780602483611caf565b915061278b82612724565b604082019050919050565b600060208201905081810360008301526127af81612773565b9050919050565b7f4f776e61626c653a2063616c6c6572206973206e6f7420746865206f776e6572600082015250565b60006127ec602083611caf565b91506127f7826127b6565b602082019050919050565b6000602082019050818103600083015261281b816127df565b9050919050565b7f4552433732313a20617070726f766520746f2063616c6c657200000000000000600082015250565b6000612858601983611caf565b915061286382612822565b602082019050919050565b600060208201905081810360008301526128878161284b565b9050919050565b7f4552433732313a206d696e7420746f20746865207a65726f2061646472657373600082015250565b60006128c4602083611caf565b91506128cf8261288e565b602082019050919050565b600060208201905081810360008301526128f3816128b7565b9050919050565b7f4552433732313a20746f6b656e20616c7265616479206d696e74656400000000600082015250565b6000612930601c83611caf565b915061293b826128fa565b602082019050919050565b6000602082019050818103600083015261295f81612923565b9050919050565b7f45524337323155524953746f726167653a2055524920736574206f66206e6f6e60008201527f6578697374656e7420746f6b656e000000000000000000000000000000000000602082015250565b60006129c2602e83611caf565b91506129cd82612966565b604082019050919050565b600060208201905081810360008301526129f1816129b5565b9050919050565b60008190508160005260206000209050919050565b60006020601f8301049050919050565b600082821b905092915050565b600060088302612a5a7fffffffffffffffffffffffffffffffffffffffffffffffffffffffffffffffff82612a1d565b612a648683612a1d565b95508019841693508086168417925050509392505050565b6000819050919050565b6000612aa1612a9c612a9784611d56565b612a7c565b611d56565b9050919050565b6000819050919050565b612abb83612a86565b612acf612ac782612aa8565b848454612a2a565b825550505050565b600090565b612ae4612ad7565b612aef818484612ab2565b505050565b5b81811015612b1357612b08600082612adc565b600181019050612af5565b5050565b601f821115612b5857612b29816129f8565b612b3284612a0d565b81016020851015612b41578190505b612b55612b4d85612a0d565b830182612af4565b50505b505050565b600082821c905092915050565b6000612b7b60001984600802612b5d565b1980831691505092915050565b6000612b948383612b6a565b9150826002028217905092915050565b612bad82611ca4565b67ffffffffffffffff811115612bc657612bc5611fa1565b5b612bd082546122bb565b612bdb828285612b17565b600060209050601f831160018114612c0e5760008415612bfc578287015190505b612c068582612b88565b865550612c6e565b601f198416612c1c866129f8565b60005b82811015612c4457848901518255600182019150602085019450602081019050612c1f565b86831015612c615784890151612c5d601f891682612b6a565b8355505b6001600288020188555050505b505050505050565b7f4552433732313a207472616e7366657220746f206e6f6e20455243373231526560008201527f63656976657220696d706c656d656e7465720000000000000000000000000000602082015250565b6000612cd2603283611caf565b9150612cdd82612c76565b604082019050919050565b60006020820190508181036000830152612d0181612cc5565b9050919050565b600081519050919050565b600082825260208201905092915050565b6000612d2f82612d08565b612d398185612d13565b9350612d49818560208601611cc0565b612d5281611cea565b840191505092915050565b6000608082019050612d726000830187611deb565b612d7f6020830186611deb565b612d8c6040830185611f01565b8181036060830152612d9e8184612d24565b905095945050505050565b600081519050612db881611c15565b92915050565b600060208284031215612dd457612dd3611bdf565b5b6000612de284828501612da9565b91505092915050565b7f4e487b7100000000000000000000000000000000000000000000000000000000600052601260045260246000fdfea264697066735822122062c5e9cebfe1aeef03de46b34ce515e162b31536fbbacbfe3bfdbf321dbd9b9564736f6c63430008130033",
  "linkReferences": {},
  "deployedLinkReferences": {}
}